:020000040800F2
:1000000088070020ED010008BF3400086F2E0008AB
:10001000BD340008911400080D39000800000000EC
:10002000000000000000000000000000C3340008D1
:100030009314000800000000C1340008C534000813
:10004000070200080702000807020008070200086C
:10005000070200080702000807020008070200085C
:10006000070200080702000807020008070200084C
:10007000070200080702000807020008070200083C
:10008000070200080702000807020008070200082C
:10009000070200080702000807020008070200081C
:1000A000070200080702000807020008070200080C
:1000B00007020008070200080702000807020008FC
:1000C00007020008070200080702000807020008EC
:1000D00007020008070200080702000807020008DC
:1000E00007020008070200080702000807020008CC
:1000F00007020008070200080702000807020008BC
:1001000007020008070200080702000807020008AB
:10011000070200080702000807020008070200089B
:10012000070200080702000807020008070200088B
:1001300000F002F800F04AF80AA090E8000C8244AF
:100140008344AAF10107DA4501D100F03FF8AFF28C
:10015000090EBAE80F0013F0010F18BFFB1A43F0A5
:10016000010318474C4000006C400000103A24BFC7
:1001700078C878C1FAD8520724BF30C830C144BF0C
:1001800004680C607047000000230024002500264E
:10019000103A28BF78C1FBD8520728BF30C148BFEA
:1001A0000B607047662903F09987642900F054803A
:1001B000002070471FB500F0C3FB040000200021A1
:1001C00003F00AFDE0601FBD10B510BD00F0B8FCE3
:1001D0001146FFF7EFFF03F063FC00F0D6FC03B419
:1001E000FFF7F2FF03BC00F019FD0000094880474B
:1001F00009480047FEE7FEE7FEE7FEE7FEE7FEE709
:10020000FEE7FEE7FEE7FEE704480549054A064B20
:1002100070470000433500083101000888010020C4
:100220008807002088030020880300200FB41CB535
:10023000084B06AA7B4469460090059800F067FBCE
:1002400004460020694600F075FB20461CBC5DF8A2
:1002500014FB0000FD0600002DE9F04106460024D5
:1002600010687529314616A510D0AFF3008000281C
:1002700002DA404213A507E031688A0701D512A5CA
:1002800002E0490704D511A5012401E0AFF3008085
:1002900000210A2206F1240709E0B0FBF2FCB0FBC2
:1002A000F2F302FB1C00303078541846491C002839
:1002B000F3D123462A463046BDE8F04100F0B9B8F4
:1002C000000000002D0000002B00000020000000B6
:1002D0002DE9F0474FF0000A89460446C0F820A0F7
:1002E0002046E1688847002876D0252806D0D4E942
:1002F00001219047206A401C2062F1E7E168204616
:1003000000258847C4F81CA006460027C4F818A09A
:100310002A2E09D0304603F01EFB38B304EB8708C1
:10032000303EC8F8186019E059F8041B204604EB69
:1003300087029161E1688847012F064618D1E0697C
:10034000002820DA25F020051DE0D8F8180000EB81
:10035000800006EB40003038C8F818002046E168FD
:100360008847064603F0F7FA0028EED1012F0AD09D
:100370002E2E08D12046E16888477F1C0646022FB2
:1003800045F02005C4DBA069002803DA404245F0AF
:100390000105A061E80701D025F01005B6B1A6F16E
:1003A0004100192802D8203645F400654A463146F6
:1003B000204625604D46FFF7F5FE58B1012806D0CE
:1003C000ED1D25F0070000F1080989E704E005F1BB
:1003D000040985E730468AE7206ABDE8F0874FF0D8
:1003E000000200B5134694469646203922BFA0E885
:1003F0000C50A0E80C50B1F12001BFF4F7AF090791
:1004000028BFA0E80C5048BF0CC05DF804EB890081
:1004100028BF40F8042B08BF704748BF20F8022BC4
:1004200011F0804F18BF00F8012B704770477047DC
:1004300070472DE9F0470D4699469246044600F173
:1004400024080168880604D5E06921F010012160C4
:1004500000E00120A84201DD471B00E00027A16960
:100460007A1902EB0900081AA0612078C00602D4AC
:100470002046AFF30080002608E0D4E901211AF8F5
:1004800006009047206A401C761C20624E45F4DB33
:100490002078C0060AD52046AFF3008006E0D4E9F4
:1004A000012130209047206A401C2062381EA7F1AD
:1004B0000107F4DC07E0D4E9012118F805009047B2
:1004C000206A401C2062281EA5F10105F3DC2046AD
:1004D000AFF300802078000602D50220BDE8F08747
:1004E0000120FBE770472DE9FF4F0C461E464FF0F9
:1004F000FF378BB0D2E90001DDF860800A908A46B0
:10050000C1F30A5505B93D46002108464FF00000E9
:10051000BAF1000F00F4400005DA00EB80004FF460
:10052000400101EA50004FEA9059B9F1010F00DD96
:10053000B9460A9850EA4A000ED044F61050A5F287
:10054000FF3545432F14B8F1000F1ED07542291E08
:100550001EDDC9F100021CE0B8F1010F4FF00000F0
:1005600001D0302103E0F24305E02154401CB042A9
:10057000FBDB30460022002121540B99C1F8088092
:10058000C1E900200FB0BDE8F08FBD1B6D1CDEE798
:100590004A4600DA694206A800F05CFA06AB93E826
:1005A000070003AB83E8070050460A9900F03DFBC3
:1005B0008DE80700A0F500501F3800900398002D2B
:1005C0000ADD42F21F014A460844002303A90390B2
:1005D000684600F0A6FD09E0A0F500504A461F3825
:1005E000002303A90390684600F0B0FD8DE80700E2
:1005F0000004000C03D04FF0FF30410800E010462B
:10060000B8F1000F03D00022009215461EE0751EBF
:1006100005D400F099F9303262556D1EF9D5B34614
:100620000122084302D000227F1C04E020783028F9
:1006300001D100227F1E002A099784D01DE0112DD0
:1006400007DA00F081F9303262556D1C50EA010280
:10065000F5D1084302D00098C8B10EE00021681E11
:1006600005E0235C625C63542254401E491C8142B5
:10067000F7DBAB46A81B401E0990002004F80B00D6
:100680000B98099AC0F80880C0E9002B7AE7112678
:100690004FF0000857E72DE9F04F88460446D21D79
:1006A00022F0070191B0D1E90001CDE90A0103F080
:1006B0002EF902460B98C00F01D02D2007E02068CC
:1006C000810701D52B2002E0202101EAC000032A86
:1006D000099001D0072A05DB03464146204600F079
:1006E00079F90BE12078800601D5E06900E0062069
:1006F000B8F1650F814606D0B8F1660F18D0B8F191
:10070000670F70D131E00020B9F1110F009001DBCB
:10071000112301E009F101030AAA01A90CA8FFF7BE
:10072000E2FEDDE90C70002609F10105834647E091
:1007300001204B4600904FF000470AAA01A90CA8DF
:10074000FFF7D1FEDDE90DB00C995D46002610B92A
:1007500009F101000D18B9EB050003D4C0F1FF3613
:1007600009F10105A5EB09002BE0B9F1010F01DA50
:100770004FF001090020B9F1110F0090484601DD4A
:10078000112300E003460AAA01A90CA8FFF7ABFE5B
:10079000DDE90C704D4600268346207800070AD418
:1007A000AB4500DA5D4601A8012D04DD411911F8C1
:1007B000011C302907D04F4502DA17F1040F04DA83
:1007C000012082460FE06D1EEEE7002F02DCED1BDC
:1007D0003E4403E0781CA84200DD7D1CB81B00F1FC
:1007E000010A4FF000472078000703D4AA4501DB37
:1007F0004FF0FF3A0021B7F1004F0DF143088DF89B
:10080000431024D002202B23002F01DA7F422D2316
:100810000A21021EA0F1010000DC5FB197FBF1FC90
:1008200097FBF1F201FB1C7C17460CF1300C08F829
:1008300001CDEEE7A8F1010003702188090501D57B
:10084000452100E06521A0F1010800F8011C09988C
:100850000FA9A1EB0807FF1D00B10120411901EB11
:10086000EA70A1693844081A401EA0612078C006C9
:1008700002D42046AFF30080099828B1D4E90121C1
:100880009047206A401C20622078C00622D520466E
:10089000AFF300801EE0002E04DBB34502DD01A8AB
:1008A000805D00E03020D4E901219047206A401C9F
:1008B0002062761CAAF101005FEA000A0AD100F06A
:1008C0003FF8C0680168405CD4E901219047206A84
:1008D000401C2062281EA5F10105DCDC07E0D4E9FC
:1008E000012118F8010B9047206A401C2062381E35
:1008F000A7F10107F3DC2046AFF30080032011B01D
:1009000041E6000001694A1C02610878704700B5A1
:100910008FB0CDE901310021059105497944CDE938
:10092000031011466846FFF7D3FC0FB000BD00006E
:10093000E5FFFFFF0A6802F8010B0A60704700003C
:10094000004870474401002030B5B0F10A024FEA78
:10095000900E71F100034EEA817EB0EB0E0061EB68
:1009600091014FEA101E4EEA017E10EB0E0041EBA2
:1009700011114FEA102E4EEA016E10EB0E0041EB02
:1009800011214FEA104E4EEA014E10EB0E0041EBE2
:100990001141401841F100014FEAD00040EA417096
:1009A0004FEAD10110EB80054FEA810444EA9074CC
:1009B00044EB01046D1944EB0404521BA3414FF0B6
:1009C000000348BF0A3200D530BD401C41F1000190
:1009D00030BD00002DE9F0411F46044603260168A2
:1009E000072A01F4006004DB08B116A505E016A58E
:1009F00003E008B115A500E015A521F01000206066
:100A0000A069C01EA0610FB1401EA0612046AFF3D7
:100A100000804FB1D4E9012138469047206A401C3C
:100A20002062C01C206206E0206AFAE7D4E90121B6
:100A300015F8010B9047761EF8D22046AFF30080E0
:100A4000BDE8F0814E414E006E616E00494E460099
:100A5000696E66002DE9F047814616468AB0354832
:100A600078440DC88DE80D0032487844801C03ACF2
:100A70000DC884E80D0041F69B300844372190FBF7
:100A8000F1F290FBF1F5A5F1800501FB12041B3C8E
:100A900002D56442012000E00020DFF898A08046E3
:100AA0000027FA44AAF1BE0A0EE0E0070AD0324657
:100AB000684607EB470101230AEB810100F046FB82
:100AC0008DE8070064107F1C002CEED1194F7F4485
:100AD000AE3F19E0E80715D007EB04100DF1180A36
:100AE00090E80E008AE80E00C068F04201D1981923
:100AF00008903246012306A903A800F027FB03ABA8
:100B000083E807006D10641C002DE3D14FF0010352
:100B100032466946B8F1000F03A802D000F001FB8D
:100B200001E000F013FBC9E90001C9F808200AB090
:100B3000BDE8F087343700000048704724010020EA
:100B40007546FFF7F9FFAE4605006946534620F0AB
:100B50000700854618B020B5FFF756FBBDE82040DA
:100B60004FF000064FF000074FF000084FF0000B69
:100B700021F00701AC46ACE8C009ACE8C009ACE81C
:100B8000C009ACE8C0098D46704710B50446AFF304
:100B900000802046BDE81040FFF721BB4FF0013C2C
:100BA00050F8042B51F8043B9A4221D1A2EB0C03DC
:100BB000934313EACC1317D150F8042B51F8043B9C
:100BC0009A4215D1A2EB0C03934313EACC130BD139
:100BD00050F8042B51F8043B9A4209D1A2EB0C03C4
:100BE000934313EACC13DBD04FF00000704700BFF3
:100BF000D01A01BAB1FA81F101F0180122FA01F01C
:100C0000CB40C1F12001DBB2C0B2C01A2CFA01F313
:100C1000D11A914311EAC311E6D170470149182056
:100C2000ABBEFEE72600020070475FEA400C08BF3B
:100C300091F0000F4FEA8C234FEAC12243EA515151
:100C40004FEA1C5018BF00F5F0404FEA300018BFC3
:100C500041F000415FEA6C5C00F02980BCF1FF3F8D
:100C600008BF40F080407047130C06BF12044FF0DD
:100C7000100C4FF0000C130E04BF12020CF1080C04
:100C8000130F04BF12010CF1040C930F04BF920068
:100C90000CF1020CD30F04BF52000CF1010C1146F1
:100CA0004FF00002A0F11F00A0EB0C00704711F004
:100CB000004F08BF704731F000413FF4D5AF0B0C37
:100CC00006BF09044FF0100C4FF0000C0B0E04BFD0
:100CD00009020CF1080C0B0F04BF09010CF1040C04
:100CE0008B0F04BF89000CF1020CCB0F04BF49002D
:100CF0000CF1010CCCF12003A0EB0C0022FA03F361
:100D000002FA0CF241EA030100F10100704720F001
:100D10007F4C80EA030023F07F47ACEB070303F529
:100D20007C5300F0004003F1FF032DE980494FEAB6
:100D3000154B09B44FEA144325EA0B4E24EA034845
:100D40000FF2042606EB132749083E785FEA3202C9
:100D500003FB0667C7F5000707FB06F64FEA5437A3
:100D60004FEAD64606F1020607FB066CCCF1005CA2
:100D70004FEA1C472CEA074C07FB06F40CFB06F570
:100D800004EB15464FEA961634BF00204FF00040A2
:100D90004FEAD13706FB07FC4FEA1C4C0CFB0BF764
:100DA000D21B03FB0CF761EB07010CFB0EF7B0EB5A
:100DB000074072EB17420CFB08F734BFA2EB074267
:100DC000B2EB074261EB17414FEA0C444FEA91073F
:100DD00006FB07FC4FEA1C4C0CFB0BF7B0EBC740C3
:100DE00072EB573203FB0CF734BFA2EBC742B2EBF6
:100DF000C74261EB57310CFB0EF7B0EBC70072EB4B
:100E000057720CFB08F734BFA2EBC702B2EBC70264
:100E100061EB5771039F4FEA816141EA921104EB44
:100E2000CC044FEAD1374FEA826206FB07FC42EA64
:100E300090124FEA80604FEA1C4C0CFB0BF7D21B60
:100E400003FB0CF761EB07010CFB0EF7B0EB07405F
:100E500072EB17420CFB08F734BFA2EB0742B2EB70
:100E6000074261EB17414FEA8C554FEA910704EBBB
:100E70009C2406FB07FC4FEA1C4C0CFB0BF7B0EB69
:100E8000C74072EB573203FB0CF734BFA2EBC742EB
:100E9000B2EBC74261EB57310CFB0EF7B0EBC7006A
:100EA00072EB57720CFB08F734BFA2EBC702B2EB30
:100EB000C70261EB577115EB4C254FEA816141EA9E
:100EC00092114FEA82624FEAD13742EA901206FB52
:100ED00007FC44F100044FEA80604FEA1C4C0CFB15
:100EE0000BF7D21B03FB0CF761EB07010CFB0EF7B2
:100EF000B0EB074072EB17420CFB08F734BFA2EBD4
:100F00000742B2EB074261EB174115EB1C154FEAA4
:100F1000813141EA92414FEA823242EA90424FEAFD
:100F200080304FEA0C7644F1000448EA03434EEA6D
:100F30000B484FF0000EB2EB080C71EB030724BF17
:100F4000624639464EEB0E0E4FF0000B0018524130
:100F500049414BEB0B0BB2EB080C71EB03077BF138
:100F6000000B24BF624639464EEB0E0E4FF0000BCD
:100F70000018524149414BEB0B0BB2EB080C71EBE3
:100F800003077BF1000B24BF624639464EEB0E0E81
:100F900051EA020718BF46F0010616EB0E7655F12E
:100FA000000254F1000103D5BDE88901BDE80088C5
:100FB000BDE88901BDE80048B619524141EB010185
:100FC000A3F10103704780807F7E7D7C7B7A7978F6
:100FD000777676757473727171706F6E6E6D6C6CFE
:100FE0006B6A6A69686867666665646463636261A0
:100FF0006160605F5F5E5E5D5D5C5C5B5B5A5A5921
:10100000595858575756565555555454535352528C
:101010005251515050504F4F4F4E4E4D4D4D4C4CE4
:101020004C4B4B4B4A4A4A4949494848484747472D
:10103000474646464545454444444443434343426A
:10104000424242414141002B9C4630D477002BD094
:101050001CB54FEA370703B44FF010004FF01001F2
:10106000BAF1000F06D0BCF1000FDCBF40F0080061
:1010700040F008014FF000000FBCBDE810400BF13C
:10108000010BBBF1010F08BF5FEA170722BF12F186
:10109000010211F101014FF0004143F1000300F0A2
:1010A000004043EA00007047F9D35708D0E746EA0A
:1010B000064613F1400F4FEA16461FDD13F1200FCD
:1010C000DFBF16430A46002120335B42BED0C3F186
:1010D000200746EA064602FA07F74FEA164646EAAE
:1010E0000706C3F1200722FA03F201FA07F721FAF3
:1010F00003F14FF0000342EA0702A7E746EA0206BF
:1011000046EA06464FEA164646EA0106BCBF46EAEC
:101110000646360C4FF000034FF000024FF000017E
:1011200094E72DE9804C9A46934670B491E83800D4
:1011300007C831EA400C48BF34EA430C03D5FFF737
:10114000E6FDFFF780FFF0BCBDE8008C2DE9804C88
:101150009A46934670B491E8380007C810F0804F63
:1011600008BF13F0804F03D100F005F8FFF76BFFC5
:10117000F0BCBDE8008C20F07F4780EA030023F03C
:101180007F4C07EB0C03A3F57C5300F00040A3F168
:10119000FE0392F0000F00F0B38095F0000F00F016
:1011A00077802DE901494FEA11404FEA144621EAC0
:1011B000004800FB06FC24EA064708FB06F607FB8E
:1011C00008F800FB07F718EB06484CEB164C4FEA03
:1011D000124B18EB07484FEA15464CEB174022EA32
:1011E0000B4E0BFB06FC25EA06470EFB06F607FB3B
:1011F0000EFE0BFB07F71EEB064E4CEB164C4FF0AA
:1012000000061EEB074E4CEB174B18EB0B0840F19A
:10121000000018EB0E0B58EB000840F100008F1A8D
:101220004FF000013CBFC943661B14BFB5EB040C73
:1012300000213CBFC943F61B4FEA17444EEA8E0E0D
:1012400027EA04454FEA1C4704FB07622CEA074CD7
:1012500005FB07F70CFB05F604FB0CFC16EB074639
:1012600042EB174216EB0C4642EB1C421BEB060608
:1012700058EB0202414146EA9E0601D5BDE80189CC
:10128000B619524141EB0101A3F10103BDE8018907
:101290004FEA14454FEA114724EA054621EA074C74
:1012A00005FB07F406FB07F70CFB06F105FB0CFC3E
:1012B00011EB074144EB17444FEA124711EB0C4185
:1012C00044EB1C4422EA074C05FB07F206FB07F738
:1012D0000CFB06F605FB0CFC16EB074642EB17422F
:1012E00016EB0C4642EB1C456A1854F1000148BF4E
:1012F0007047B619524141EB0101A3F10103704758
:1013000095F0000F37D04FEA11424FEA144721EA17
:10131000024624EA074C02FB07F106FB07F70CFB29
:1013200006F402FB0CFC14EB074441EB17414FEAB7
:10133000154714EB0C4441EB1C4125EA074C02FB1A
:1013400007F506FB07F70CFB06F602FB0CFC16EB99
:10135000074645EB174516EB0C4645EB1C421219A8
:1013600051F1000148BF7047B619524141EB0101EC
:10137000A3F1010370474FEA14454FEA114724EAED
:10138000054621EA074C05FB07F106FB07F70CFBB6
:1013900006F24FF0000605FB0CFC12EB074241EB96
:1013A000174112EB0C4251EB1C4148BF7047921899
:1013B00041EB0101A3F101037047000070B5044641
:1013C00000688168C943C90717D1816821F001010C
:1013D000816000F0D7FB05460AE000BF00F0D2FBB9
:1013E000401B022804D920688068C043C00706D08B
:1013F00020688068C043C007F0D0002070BDA06A9C
:1014000040F01000A062E06A40F00100E0620120BC
:1014100070BD0000F8B5002604460096006881689B
:10142000C943C9072DD0816841F001018160164888
:1014300016490068B0FBF1F000E0401E0090002863
:10144000FBD100F09FFB054616E000BF00F09AFBC1
:10145000401B022810D920688068C043C0070BD009
:10146000A06A40F01000A062E06A40F00100E06273
:1014700084F824600120F8BD20688068C043C0075C
:10148000E4D10020F8BD00000C00002040420F0015
:10149000FEE7704772B6FEE7F8B50024009490F8B6
:1014A00024202546012A12D0012280F824204A68EF
:1014B0001F23072A0DD20668776B521E02EB8202A9
:1014C00093409F430B6893401F43776319E00220CA
:1014D000F8BD06680D2A0AD2376BD21F02EB8202D2
:1014E00093409F430B6893401F43376309E0F76ABB
:1014F0000D3A02EB820293409F430B6893401F43D7
:10150000F7620A68072306680A2A0AD3F7680A3AC4
:1015100002EB420293409F438B6893401F43F76066
:1015200008E0376902EB420293409F438B68934087
:101530001F4337610A68102A01D0112A20D1124BAB
:1015400002689A4217D193681B0219D4936843F436
:10155000000393600968102912D10C490C4A0968EC
:10156000B1FBF2F101EB8101490000E0491E00915D
:101570000029FBD104E0816A41F02001816201244D
:1015800080F824502046F8BD002401400C000020C3
:1015900040420F000068C06C704700002DE9F04128
:1015A00004004FF000057FD0A06A002628B9E6624B
:1015B00084F82460204600F081F82046FFF7FEFE04
:1015C000A16AC90600D420B1A06A40F01000A06250
:1015D0006AE0A16A21F4885141F00201A162334915
:1015E00023688B42E16904D1B1F5402F01D14FF45A
:1015F0000021277B4FF4807C41EA470261680A435F
:10160000A168614508D0012906D0002194F814E0B2
:10161000BEF1010F02D00AE06146F7E7C7B1A76A41
:1016200047F02007A762E76A47F00107E7625F68B3
:1016300027F469470F435F60236899681C4F39405E
:1016400011439960A16861450BD0012909D00CE0D4
:10165000DFF860E0A7690EEB47370F4347F40061FE
:10166000E5E7218A0D05A5F580152168CB6A23F4ED
:1016700070032B43CB62216889680F4B194091425C
:1016800008D1E662A16A21F0020141F00101A162E4
:10169000BDE8F081A06A20F0020040F01000A062D6
:1016A000E06A40F00100E0620120F1E7003C014007
:1016B000FDF7E1FF00E0FFFFFE0E1FFF00B585B064
:1016C0000021009101910291039100680E49884226
:1016D00018D10E48816941F400718161816901F47A
:1016E00000710491816941F004018161806969465A
:1016F00000F00400049002200090032001900448B0
:1017000000F032F905B000BD002401400010024095
:10171000000801402DE9F84300270D4604460097D4
:1017200000F030FA804620688168C90508D5A06AB3
:1017300040F02000A06284F824700120BDE8F88306
:101740004168C90503D4C06A10F4700F2AD0022082
:1017500000F058FD3B490968B1FBF0F620680369C9
:1017600039490B424FEA61014FEAA1121FD1C36808
:101770004FEA611C13EA0C0F19D103690B4225D102
:10178000C068104222D1142023E0681C0AD02DB179
:1017900000F0F8F9A0EB0800A84203D9206800681F
:1017A000800725D5206800688007EED52DE0036905
:1017B0000B4202D1C168114206D0026923490A4294
:1017C00006D1C068084203D1542002E0292000E07D
:1017D000FC204643009816E0681C11D02DB100F0A3
:1017E000D1F9A0EB0800A8420AD90098B04207D26C
:1017F000A06A40F00400A06284F8247003209DE7F2
:101800000098401C0090B042E6D321686FF01200AF
:101810000860A06A40F40070A06220688068C0F38D
:10182000424007280CD1207B50B9A06A20F4807078
:10183000A062A06AC00403D4A06A40F00100A062C4
:1018400000207BE70C0000202449922449922400C8
:1018500070B5044690F8240001280DD0012084F8CA
:1018600024002046FFF7D6FD02004FF0000005D00F
:1018700084F82400104670BD022070BDA16A40F2B9
:101880000123994341F48071A1621F4D23681F49D0
:10189000AB4218D10E6816F4702F14D0A66A46F425
:1018A0008016A6620E68760505D5A66A26F400564F
:1018B00046F48056A662A66AF6040AD5E66A26F0C1
:1018C0000606E66206E0A66A26F48016A6625E6850
:1018D000E9E7E06284F824006FF0020018602068F5
:1018E0008368C3F34243072B05D1A84208D1096896
:1018F00011F4702F04D0816841F480118160B9E740
:10190000816841F4A001F9E7002801400424014066
:1019100010B5044690F82400012807D0012084F86F
:1019200024002046FFF74AFD10B107E0022010BD59
:10193000A16A21F4885141F00101A162002184F8DB
:10194000241010BD70B5044600F01CF90546601C5B
:1019500002D004480078044400F014F9401BA0426F
:10196000FAD370BD000000202DE9F84FDFF8C891D0
:101970000024A9F1040B23460F2709F1040AABF157
:10198000040ED1E00125A54006EA0502AA4276D15F
:10199000DFF8A8C14E68A6EB0C0866452BD00DDC1D
:1019A000032E34D005DC36B3012E19D0022E2FD1F0
:1019B0001BE0112E16D0122E2AD119E0B8F5881F7F
:1019C00019D006DCB8F5803F15D0B8F5801F1FD1BF
:1019D00011E0B8F5001F0ED0B8F5041F18D10AE0C9
:1019E000CB6815E0CB681B1D12E0CB6808330FE015
:1019F000CB680C330CE08B682BB1012B4FF0080344
:101A000003D0456104E0042302E0056100E0002307
:101A1000FF2A01D8064601E000F104064FEA8405DA
:101A200001D9A5F12005D6F8008007FA05FC28EABF
:101A30000C0803FA05F548EA0508C6F800804D6869
:101A4000ED0070D53E4DAE6946F00106AE61AD6960
:101A500024F0030605F0010500953A4D06EB050C50
:101A6000DCF80850A607360F07FA06F825EA08053D
:101A7000DFF8D480404503D14FF0000825E052E064
:101A8000DFF8C880404502D14FF001081DE0DFF8C3
:101A9000C080404502D14FF0020816E0DFF8B48064
:101AA000404502D14FF003080FE0DFF8AC8040451D
:101AB00002D14FF0040808E0DFF8A080404502D1D1
:101AC0004FF0050801E04FF0060808FA06F848EA6A
:101AD0000508CCF808804D68D9F80060ED024D4645
:101AE00001D5164300E096432E604D68DAF8006099
:101AF000AD02554601D5164300E096432E604D6871
:101B0000DBF80060AD035D4601D5164300E0964367
:101B10002E604D68DEF80060ED03754601D5164372
:101B200000E096432E60641C0A681646E2407FF48B
:101B300029AFBDE8F88F0000080401400000111033
:101B4000001002400000014000080140000C01406C
:101B5000001001400014014000180140001C014029
:101B60008068084000D001207047C26821EA020363
:101B70000A4043EA0241016170470AB101617047BE
:101B80000904FBE70148806870470000000000205E
:101B900070B5040025D094F83D00002520B984F8E4
:101BA0003C50204600F076FA242084F83D0020685E
:101BB000016821F0010101602068016841F40041E1
:101BC00001602068016821F40041016000F082FC9E
:101BD0004D4A6168914201D84C4900E04C49884225
:101BE00001D2012070BD4B492368B0FBF1F15E6862
:101BF00026F03F060E435E606368934206D94FF4B9
:101C0000967359434FF47A73B1FBF3F12368491C7F
:101C10001E6A26F03F06314319626168914210D86E
:101C20004900401EB0FBF1F2521CC2F30B02042A21
:101C300001D2042022E0B0FBF1F0401CC0F30B0005
:101C40001CE0A268F2B301EBC10303EB0116431ED3
:101C5000B3FBF6F35B1C43F480431B0549D092B3FE
:101C600001EBC10202EB0111401EB0FBF1F0401C80
:101C7000C0F30B0040F4804040F400402168CA6982
:101C80004CF6FF739A431043C861D4E9071001432F
:101C90002068026822F0C00211430160D4E9030108
:101CA00001432068826848F2FF339A431143816000
:101CB000D4E9050108432168CA6822F0FF021043F5
:101CC000C86001E00EE016E02068016841F0010103
:101CD00001602564202084F83D00256384F83E508F
:101CE000002070BD01EB4106431EB3FBF6F35B1C05
:101CF000B3E70120C2E701EB4101401EB0FBF1F068
:101D0000401CC0F30B00B7E7A086010080841E00D2
:101D100000093D0040420F002DE9F84F0025DDF895
:101D20002890984617468A4604460095FFF72AFFF2
:101D3000064694F83D0020287AD1192301228649CD
:101D40002046009601F09CF90028F5D194F83C005B
:101D500001286DD0012084F83C0020680168C90783
:101D600003D1016841F0010101602068016821F49C
:101D700000610160222084F83D00102084F83E00BC
:101D800025646762A4F82A80608D20857348E0622C
:101D900033464A465146204601F082F800287CD15D
:101DA000208DDFF8BC81202768B1012814D00228DB
:101DB000206801681ED041F480610160206841699B
:101DC00080690090BBE020684169816900910168E9
:101DD00041F400710160B2E02068016821F4806183
:101DE000016072B62068416981690091016841F41F
:101DF00000710AE041F40061016072B62068416937
:101E000081690091016821F48061016062B696E009
:101E1000032865D801280CD002284B464FF0000259
:101E20004146204600960BD001F02AF9A8BB0CE0F1
:101E300090E032464946204601F0C8F968BB71E09F
:101E400001F01EF948BB72B633E02068016821F446
:101E50008061016072B620680069616A0870606A1A
:101E6000401C6062208D401E2085608D401E608574
:101E70003C4846F2A8110068B0FBF1F0C0EBC0008E
:101E800000EB80000090401E009007D02068406961
:101E9000C04340070DD50098F5E727E044F8305FD0
:101EA0006773A573206940F02000206162B6257336
:101EB0001CE02068016841F400710160206800693D
:101EC000616A0870606A401C6062218D491E21852C
:101ED000618D491E618562B621680969017025E03E
:101EE00032464946204601F071F910B10120BDE8A3
:101EF000F88F20680069616A0870606A401C60623F
:101F0000208D401E81B22185608D401E6085206835
:101F10004269D243520712D4032903D1016821F444
:101F20008061016020680069616A0870606A401C15
:101F30006062208D401E2085608D401E6085208D52
:101F400000287FF465AF84F83D7084F83E5084F833
:101F50003C50CCE70220CAE7020010000000FFFF5F
:101F6000040001000C0000202DE9F84F1F469046A8
:101F70008A460446DDF82890FFF704FE054694F8EB
:101F80003D0020287FD11923012240492046009599
:101F900001F076F8002876D194F83C00012872D040
:101FA000012084F83C0020680168C90703D101685A
:101FB00041F0010101602068016821F400610160C5
:101FC000212084F83D00102084F83E00002626647D
:101FD000C4F824806785608D20852D48E0622B46FB
:101FE0004A465146204600F0D1FF90B92068416929
:101FF0008069009036E02A464946204601F01EF9E5
:1020000050B1206C042804D12068016841F40071AB
:1020100001600120BDE8F88F606A216800780861DE
:10202000606A401C6062618D491E6185218D491E78
:1020300089B2218522685369DB435B070BD451B118
:1020400000781061606A401C6062608D401E60858F
:10205000208D401E20852A464946204600F0E4FF98
:102060000028CED1208D0028C5D154F83D0B016841
:1020700041F400710160202004F81E09E6776677BC
:102080000020C7E7FFE70220C4E7000002001000BD
:102090000000FFFF10B586B0002100910191029170
:1020A000039100680F4988421AD10F4CA06940F093
:1020B0000800A061A069694600F008000490C020F3
:1020C000009012200190032003900848FFF74CFC79
:1020D000E06940F40010E061E06900F40010049051
:1020E00006B010BD0054004000100240000C01403A
:1020F0000248816802781144816070470000002026
:10210000074810B5016841F010010160032000F09C
:1021100067F80F2000F006F800F024F8002010BD4A
:102120000020024070B50D4D04464FF47A712878B6
:10213000B1FBF0F00A490968B1FBF0F000F0A0FB38
:1021400048B9102C07D200222146501E00F028F872
:1021500000206C6070BD012070BD000000000020F8
:102160000C0000200C4808B5816941F00101816133
:10217000816901F001010091C16941F08051C161A3
:10218000C06900F0805000900448416821F0E0618F
:1021900041F00071416008BD0010024000000140A4
:1021A000F0B40E4B1B680C46C3F30223C3F10705C2
:1021B000042D00D90425191D072901D2002300E0B0
:1021C000DB1E012606FA05F1491E214099409E407A
:1021D000761E16403143F0BC01F0ADBB0CED00E0C3
:1021E000064900F0070208684FF6FF03184040EA6E
:1021F0000220034A10430860704700000CED00E025
:102200000000FA0510B501460020284C04292FD003
:102210000BDC012930D0022929D100F06BF961686B
:10222000C1F38131491C49001FE0082920D0102941
:102230001DD161682268D20119D51D48C1F38342BE
:10224000C903805C0AD56168194AC1F34041921EF6
:10225000515C184AB2FBF1F1484301E0164948438A
:102260006168490203D440000321B0FBF1F010BDC6
:10227000BDE8104000F04EB9226AC2F301210129E5
:1022800003D1920701D5C80310BD022905D1626AA6
:10229000920702D549F6404010BD0329FCD12168C0
:1022A0008903F9D54FF2244010BD00000010024010
:1022B000F440000800127A0000093D002DE9F843BF
:1022C00005460078354CC00754D0E0690026C000B0
:1022D00008D4E06940F08050E061E069012600F038
:1022E000805000902E480168C90512D401688046CC
:1022F00041F480710160FFF745FC074605E000BF2F
:10230000FFF740FCC01B642823D8D8F80000C005A4
:10231000F6D5206A10F4407021D0A98801F44071EC
:1023200081421CD0206A1F49012220F440700A60BB
:1023300000220A602062C00711D0FFF723FC074685
:1023400041F2883808E000BFFFF71CFCC11B414583
:1023500002D90320BDE8F883206A8007F4D5206AFB
:10236000696820F44070084320621EB1E06920F0E3
:102370008050E0612878800705D56068A96820F45E
:102380004040084360602878C00605D560686969E8
:1023900020F48000084360600020DBE7001002406A
:1023A00000700040400442422DE9F0470F4605000E
:1023B00061D0434E306800F00700B84209D230685F
:1023C00020F0070038433060306800F00700B84262
:1023D00051D128683B4C810712D5400703D560686E
:1023E00040F4E06060602878000703D5606840F43E
:1023F000605060606068A96820F0F0000843606089
:102400002878C00728D06868012810D021680228E1
:1024100010D0890700292EDA616821F003010143F9
:102420006160FFF7AFFB804641F288390DE021681B
:102430008903EFE78901EDE7FFF7A4FBA0EB0801B3
:10244000494502D90320BDE8F0876068696800F05B
:102450000C00B0EB810FEFD1306800F00700B842FC
:102460000BD9306820F0070038433060306800F046
:102470000700B84201D00120E5E72878400705D5DC
:102480006068E96820F4E06008436060287800072D
:1024900006D56068296920F4605040EAC100606098
:1024A00000F038F86168084AC1F30311515CC84074
:1024B0000649086006480068FFF734FE0020C2E7BE
:1024C0000020024000100240044100080C000020DF
:1024D000040000200448054900684968044AC1F323
:1024E0000221515CC84070470C00002000100240DF
:1024F000144100080448054900684968044AC1F3CA
:10250000C221515CC84070470C00002000100240FE
:10251000144100080E4A51680E4801F00C03042BC8
:1025200011D0082B0FD10C48C1F38343C903C05C01
:102530000AD55168084AC1F34041921E515C054AD0
:102540005043B0FBF1F07047044948437047000026
:102550000010024000127A00E240000800093D002D
:102560002DE9F84F040070D02078C04DC00749D045
:102570006868C0F38100012807D06868C0F3810053
:10258000022809D16868C00306D52868800339D5B8
:1025900060680028E7D035E06068B0F5803F0BD078
:1025A00010B1B0F5A02F11D0286820F48030286039
:1025B000286820F4802002E0286840F480302860F9
:1025C000606890B1FFF7DEFA06460AE0286840F43A
:1025D00080202860F0E700BFFFF7D4FA801B642852
:1025E00073D828688003F7D50CE0FFF7CBFA0646CE
:1025F00005E000BFFFF7C6FA801B6428F0D8286802
:102600008003F7D420789A4E80074FF001094FF0ED
:10261000000839D5686810F00C0F07D06868C0F35F
:102620008100022809D16868C00306D428688007A1
:1026300014D52069012808D110E02069B0B1C6F88E
:102640000090FFF79FFA074605E00AE1FFF79AFAC4
:10265000C01B0228C4D828688007F7D5286861699C
:1026600020F0F80040EAC10028600DE0C6F80080C4
:10267000FFF788FA074604E0FFF784FAC01B022838
:1026800023D828688007F7D4207800072CD579480C
:10269000A169D9B1C0F80090FFF774FA074604E0C9
:1026A000FFF770FAC01B02280FD8686A8007F7D5B9
:1026B00071484FF4FA510068B0FBF1F0009000BF90
:1026C0000098411E0091FAD20EE080E0C0F8008030
:1026D000FFF758FA074604E0FFF754FAC01B022838
:1026E00075D8686A8007F7D42078400760D5E86914
:1026F0000027C00008D4E86940F08050E861E8692C
:10270000012700F0805000905C480168C90513D48F
:102710000168834641F480710160FFF733FA824615
:1027200006E000BFFFF72EFAA0EB0A0064284ED89F
:10273000DBF80000C005F5D5E06801280AD008B133
:10274000052813D0286A20F001002862286A20F0AA
:10275000040002E0286A40F001002862E06841F2CB
:10276000883B98B1FFF70EFA82460BE0286A40F0EA
:1027700004002862EEE700BFFFF704FAA0EB0A01AD
:1027800059455AD8286A8007F6D50CE0FFF7FAF9C0
:10279000824605E0FFF7F6F9A0EB0A0159454CD84F
:1027A000286A8007F6D41FB1E86920F08050E861FC
:1027B000E06988B36968C1F38101022944D0022825
:1027C000C6F8608004D0FFF7DDF9044638E034E055
:1027D000FFF7D8F9074604E0FFF7D4F9C01B022839
:1027E0002BD828688001F7D4206AB0F5803F05D146
:1027F0006868A16820F4003008436860D4E90801E3
:102800000843696821F4741108436860C6F8609051
:10281000FFF7B8F9044606E025E000BFFFF7B2F97C
:10282000001B022809D828688001F7D51BE000BFEB
:10283000FFF7A8F9001B022802D90320BDE8F88F92
:1028400028688001F4D40EE00128F7D06868226A75
:1028500000F48031914204D1616A00F47010884222
:1028600001D00120EAE70020E8E700000010024064
:1028700000004242800442420C00002000700040F0
:1028800010B5401EB0F1807F01D3012010BD4FF084
:10289000E02460610F21601701F04DF80020A06175
:1028A00007202061002010BD10B590F83C20012ABF
:1028B00022D0012280F83C20CA688C6822F4407241
:1028C00022434C6822F4806222430C6822F40062A6
:1028D00022430C6922F4805222434C6922F40052B4
:1028E0002243C969002322F480420A4301684A64F2
:1028F00080F83C30002010BD022010BD70B590F86B
:102900003C20012A2CD0012480F83C40022280F88F
:102910003D2003685A689D6822F070060A683243B9
:102920005A60104B02689A420ED00F4B9A420BD05D
:10293000B2F1804F08D00D4B9A4205D00C4B9A4211
:1029400002D00C4B9A4204D1496825F08003194308
:10295000916080F83D40002180F83C10084670BD31
:10296000022070BD002C01400034014000040040F2
:1029700000080040000C004010B5040003D094F89B
:102980003D0010B107E0012010BD002084F83C009C
:10299000204600F01FF8022084F83D00211D206829
:1029A00000F0D0FD012084F8460084F83E0084F851
:1029B0003F0084F8400084F8410084F8420084F825
:1029C000430084F8440084F8450084F83D0000206A
:1029D00010BD000008B500680649884208D10648C5
:1029E000816941F400618161806900F400600090B8
:1029F00008BD0000002C01400010024070B50446E4
:102A000090F83C000025012817D0012684F83C608E
:102A1000022084F83D002068826822F0770222F4C8
:102A20007F4282600868502838D00DDC20284FD0C3
:102A300005DC90B3102811D14AE0022070BD302887
:102A400046D040280AD13BE060282FD070280DD016
:102A5000B0F5805F03D0B0F5005F12D0012584F897
:102A60003D60002084F83C00284670BDCB68D1E969
:102A70000121206800F0B9FD2068816841F07701EC
:102A800009E0CB68D1E90121206800F0AEFD2068A3
:102A9000816841F480418160E1E719E0CA684968D2
:102AA000206800F077FE5021206806E0CA68496877
:102AB000206800F080FE6021206800F0A0FDCEE7D5
:102AC000CA684968206800F065FE40212068F4E784
:102AD000226801461046F0E700B585B0002100915C
:102AE00001910291039100680B49884212D10B4871
:102AF000816941F0040181618069694600F0040048
:102B000004904FF4807000900220019003900448DC
:102B1000FEF72AFF05B000BD002C01400010024066
:102B20000008014070B5044690F83C0000260D46B0
:102B300001280FD0012084F83C006AB1042A1DD07E
:102B4000082A2FD00C2A3FD00126002084F83C0010
:102B5000304670BD022070BD206800F059FD20682D
:102B6000816941F0080181612068816921F00401D7
:102B70008161206881692A69114311E0206800F0B1
:102B800077FD2068816941F4006181612068816975
:102B900021F480618161206881692A6941EA02210A
:102BA0008161D2E7206800F099FD2068C16941F099
:102BB0000801C1612068C16921F00401C161206878
:102BC000C1692A69114311E0206800F0BBFD20684B
:102BD000C16941F40061C1612068C16921F480616B
:102BE000C1612068C1692A6941EA0221C161ACE77B
:102BF00010B5040003D094F83D0010B107E00120A7
:102C000010BD002084F83C00204600F01EF8022091
:102C100084F83D00211D206800F094FC012084F818
:102C2000460084F83E0084F83F0084F8400084F8B1
:102C3000410084F8420084F8430084F8440084F89A
:102C4000450084F83D00002010BD704710B50446D3
:102C5000022249B104290ED0082913D094F841006A
:102C6000012816D0012010BD94F83E000128F9D1AA
:102C700084F83E200FE094F83F000128F2D184F858
:102C80003F2008E094F840000128EBD184F8402070
:102C900001E084F841200122206800F099FC1349EA
:102CA0002068134A884201D0904203D1436C43F418
:102CB00000434364206888420DD090420BD0B0F1AD
:102CC000804F08D00B49884205D00B49884202D07A
:102CD0000A49884204D1816801F00701062903D01E
:102CE000016841F001010160002010BD002C01408D
:102CF000003401400004004000080040000C004087
:102D000070B5040004D094F84100002510B106E02D
:102D1000012070BD84F84050204600F023F82420A4
:102D200084F841002068C16821F40051C160204648
:102D300000F054FD2068016921F490410161206890
:102D4000416921F02A0141612068C16841F40051C4
:102D5000C1606564202084F8410084F84200656306
:102D6000002070BD30B585B0002400940194029419
:102D7000039400681449884224D11448816941F4BD
:102D800080418161816901F480410491816941F050
:102D90000401816180690E4D00F0040004904FF43D
:102DA000007000900220019003200390694628469D
:102DB000FEF7DAFD2815CDE900046946284602949D
:102DC000FEF7D2FD05B030BD0038014000100240D2
:102DD000000801402DE9F843044690F841001F46E1
:102DE00016460D46202802D00220BDE8F8837DB1AA
:102DF00076B100206064212084F84100FEF7C2FE15
:102E0000A6848046E684A068B0F5805F02D003E027
:102E10000120EAE7206910B12E4600250EE00026C9
:102E20000CE08021204600F035FDA0B9AEB116F8C7
:102E3000010B21684860E08C401EE084E08C434632
:102E40004FF0000200970028EBD14FF040012046E0
:102E500000F020FD30B10320C7E735F8020BC0F3C6
:102E60000800E6E7202084F841000020BDE7FEE7E7
:102E700001684A69D24352050FD46FF480624A61F7
:102E8000002140F8301F202242738173026942F012
:102E900004020261017301207047002070470000A6
:102EA0002DE9F84F0446C06A1E4693460D46216838
:102EB0000A6842F480620A60082807D0012805D019
:102EC00010F5803F02D0206B112804D120680168E2
:102ED00041F4807101604FF001195B4600224946C0
:102EE0002046009600F0CCF84FF4007840B12068FE
:102EF0000068C00501D5C4F840800320BDE8F88F04
:102F00002069DFF884A0B0F5804F0FD0062021683B
:102F100000EAD51747F0F000086133465A460AF137
:102F20000601204600F0F4F858BB03E0E8B240F098
:102F300001001CE02168E8B2086133465A46514658
:102F4000204600F0E5F8E0B9206841698169009108
:102F5000016841F4807101605B46002249462046C9
:102F6000009600F08DF80028C1D147F0F1002168EB
:102F7000086133465A465146204600F0C9F80028F9
:102F8000BCD00120BAE7000002000100F8B50446F9
:102F9000C06A1E460D461746082807D0012805D0EE
:102FA00010F5803F02D0206B122804D12068016800
:102FB00041F480710160134600224FF00111204658
:102FC000009600F05DF840B120680068C00502D5A9
:102FD0004FF4007020640320F8BD2069B0F5804FE5
:102FE0000ED00620216800EAD51040F0F0000861FC
:102FF00033463A460B49204600F08AF878B902E099
:1030000005F0FE0000E0E8B221680861054933469A
:103010003A46891F204600F07BF80028DCD00120CA
:10302000F8BD00000800010070B516460D460446C4
:103030001EE02046FFF71CFF08B1012070BD681C90
:1030400016D0FEF79FFD801BA84200D885B92068E6
:103050004069C04340070BD5002044F8300F2021C1
:103060006173A073216941F0200121612073E4E7BD
:1030700020684069C0434007DBD4002070BD0000D9
:103080002DE9F047984617460D460446C1F307461A
:10309000DDF820902AE000BFB8F1FF3F26D0FEF710
:1030A00071FDA0EB0901414502D8B8F1000F1DD117
:1030B0002068012E16D0806925EA00000004000C6B
:1030C00012D00020B84211D1002044F8300F202146
:1030D0006173A073216941F02001216120730120F7
:1030E000BDE8F0874069E7E70120EBE72068012EA3
:1030F0000AD0806925EA00000004000C06D00020F8
:10310000B842C9D00020EBE74069F3E70120F7E7B8
:103110002DE9F047984616460D4604464FF0000943
:103120004FF0200AC1F3074723E020684069C043FD
:10313000400515D42068016841F4007101602168E0
:103140006FF480604861C4F8309084F83DA084F842
:103150003E90216C41F00401216484F83C9021E010
:10316000701C06D0FEF70EFDA0EB0800B04203D89D
:1031700016B1012F1FD021E02068012F15D08069E2
:1031800025EA00000004000C18D000BF44F8309F6E
:1031900084F80DA084F80E90216941F0200121618E
:1031A00084F80C900120BDE8F087406925EA000012
:1031B0000004000CEAD12068406901E020688069C1
:1031C00025EA00000004000CAFD1ECE72DE9F04146
:1031D000002590460E460446202728E04069C0435B
:1031E000C0060CD454F8301B6FF01000486144F84E
:1031F00010596777A577206A2062257714E0FEF7DB
:10320000C1FCA0EB0800B04200D886B92068406934
:10321000C04340060BD544F8305F6773A57320693F
:1032200040F02000206125730120BDE8F081206876
:103230004169C9434906D1D40020F6E770B5164666
:103240000D4604461EE02046FFF712FE08B101209D
:1032500070BD681C16D0FEF795FC801BA84200D8F4
:1032600085B920684069C04300060BD5002044F8AA
:10327000300F20216173A073216941F02001216189
:103280002073E4E720684069C0430006DBD40020D7
:1032900070BD00003EB500241048009401940294D3
:1032A0000D498460016004730475012505614FF4C4
:1032B00060214460C161FEF771F908B1FEF7EAF8D8
:1032C0000095CDE9015469460448FEF7E5F8002869
:1032D00001D0FEF7DFF83EBD0024014010000020C1
:1032E00030B585B0002420480094019402940394E2
:1032F000816941F020018161816901F0200104911F
:10330000816941F004018161816901F00401049146
:10331000816941F010018161816901F0100104911E
:10332000816941F0080181618069104D00F0080059
:103330000490002280212846FEF71FFC0420CDE9DE
:10334000000469460A480294FEF70EFB80200090B4
:103350000120CDE901040220039069462846FEF7CA
:1033600003FB05B030BD000000100240001001401A
:10337000000801400D4810B50B4901600C4941603F
:1033800000214FF480428160C0E9031241618161F4
:10339000C1610162FEF7FCFB002803D0BDE81040CC
:1033A000FEF778B810BD0000005400404000002037
:1033B000A086010010B596B000240F9410941194CB
:1033C000129413941C2108A81494FDF708F82021E6
:1033D0006846FDF704F82A482849016040F2CF21E9
:1033E000C0E901144FF4FA61C0E903148021C0E977
:1033F0000541FFF7C1FA08B1FEF74CF84FF48050D1
:103400000F900FA91E48FFF7F9FA08B1FEF742F82E
:103410001B48FFF7EDFB08B1FEF73CF8139413A926
:1034200017481494FFF76AFA08B1FEF733F86020E2
:10343000089040F2E730CDE909040B940C940D9408
:10344000002208A90E480E94FFF76CFB08B1FEF7A6
:1034500021F800944FF40050CDE904400294019407
:103460000394694606480794FFF71EFA08B1FEF771
:1034700011F80348FFF730FB16B010BD002C0140D7
:10348000940000200C4810B50A4901604FF4E13166
:103490004160002181600C22C160C0E90412816199
:1034A000C161FFF72DFC002803D0BDE81040FDF7F7
:1034B000F1BF10BD00380140DC000020FEE7FEE750
:1034C00070477047FEF714BE30B595B028216846A6
:1034D000FCF785FF14210AA8FCF781FF18210FA82B
:1034E000FCF77DFF01210804CDE9001000250295BD
:1034F00002240491CDE907404FF4E010099068469A
:10350000FFF72EF808B172B6FEE70AA90F2081E88E
:1035100031004FF48060CDE90D0502210AA8FEF7C5
:1035200043FF08B172B6FEE74FF4004011900F94CC
:103530000FA8FEF7C3FE002801D072B6FEE715B053
:1035400030BD7047F0B502681C4B1D4D1D4E1E4F1F
:103550001E4C4FF0804C984209D0A04207D06045E5
:1035600005D0A84203D0B04201D0B84204D122F025
:10357000700E4A6842EA0E02984209D0A04207D073
:10358000604505D0A84203D0B04201D0B84203D173
:1035900022F44075CA682A434D6922F080022A430A
:1035A00002608A68C2620A688262984201D0A042C0
:1035B00001D10969016301214161F0BD002C014085
:1035C0000004004000080040000C004000340140AE
:1035D00010B501F01F030121046A99408C43046275
:1035E000016A9A401143016210BD10B5846842EA35
:1035F000032224F47F440A432243826010BD826880
:1036000022F070020A4342F0070181607047000017
:10361000F0B5036A026A22F001020262426884691C
:10362000124E24F073050C682C4323F002058B68BE
:103630002B430D4DA84201D0B04205D123F008071D
:10364000CB683B4323F00403A84201D0B04205D12C
:103650004D6922F4407215438A692A4342608461AD
:10366000496841630362F0BD002C01400034014011
:10367000F0B5026A036A23F01003036243688469A9
:103680000D6824F4E64444EA05248D6822F0200203
:1036900042EA05120F4D104EA84201D0B04206D1A9
:1036A000CF6822F0800242EA071222F04002A842CC
:1036B00001D0B04207D14D6923F4406343EA85034A
:1036C0008D6943EA850343608461496881630262CE
:1036D000F0BD0000002C014000340140F0B5026A4A
:1036E000036A23F4807303624368C46922F400729E
:1036F00024F073050C68124E2C438D6842EA0522B3
:103700000E4DA84201D0B04206D1CF6822F400622B
:1037100042EA072222F48062A84201D0B04207D1D7
:103720004D6923F4405343EA05138D6943EA0513B9
:103730004360C4614968C1630262F0BD002C01406E
:103740000034014030B5046A026A22F480520262F9
:103750004268C3690D6823F4E64343EA05238D6894
:1037600024F4005444EA0534084DA84202D0084D20
:10377000A84204D14D6922F4804242EA8512426097
:10378000C36149680164046230BD0000002C01403F
:103790000034014010B5036A046A24F00104046295
:1037A000846924F0F00444EA021423F00A020A4374
:1037B0008461026210BD10B5036A046A24F010042B
:1037C0000462846923F0A00324F4704444EA0232C2
:1037D00043EA01118261016210BD000070B5044628
:1037E00000680169E26821F44051114301612169D7
:1037F000A0680843616908432168CA6841F20C6304
:103800009A430243CA6020684169A26921F4407169
:10381000114341611E492068884202D1FEF76AFEC9
:1038200001E0FEF757FE00EBC00101EB00126068FB
:1038300064218000B2FBF0F3B3FBF1F36FF01806E4
:103840007343B2FBF0F5B2FBF0F605EB83053223D0
:1038500003EB0515B5FBF1F5B6FBF1F605F0F00548
:1038600005EB0615B2FBF0F6B2FBF0F0B0FBF1F0A1
:103870006FF01802504306EB800003EB0010B0FB22
:10388000F1F0216800F00F002844886070BD00004E
:10389000003801402DE9F041984617460E4604468F
:1038A000069D27E0681C25D02DB1FEF76BF9A0EB33
:1038B0000800A8421ED920680C3050E8001F21F4EF
:1038C000D07140E80012002AF5D12068143050E889
:1038D000001F21F0010140E80012002AF5D120204C
:1038E00084F8410084F84200002084F8400003205E
:1038F000BDE8F0812068006836EA000004D00020AE
:10390000B842CFD00020F3E70120F9E7FEE74900F5
:1039100050EAC12018BF04204A0D18BF40F0010032
:1039200040F2FF72B2EB515F08BF40F00200012885
:1039300008BF052070470907090E002804DB00F1C5
:10394000E02080F80014704700F00F0000F1E02044
:1039500080F8141D704730380A2801D201207047C2
:10396000002070472DE9FF4184B01E4617466424AD
:103970000546022305AAE0210094FEF7F5FA38B9BE
:10398000062301AAE12128460094FEF7C5F918B1E3
:10399000002008B0BDE8F081BDF804009DF80610D5
:1039A00045BABDF8070044BA284600F01FF84FF0AA
:1039B0000008C8B19DF80910204600F017F898B12A
:1039C0004FF6FF7026B164214D43B5FBF0F1316035
:1039D00047B144F25C414C43B4FBF0F0A0F5885091
:1039E000943838600120D4E74046D2E778B5020A1F
:1039F0008DF800208DF80100FF20312400226D4653
:103A0000AB5C58400023060602D584EA400000E083
:103A100040005B1CDBB2C0B2082BF4D3521CD2B204
:103A2000022AEDD3814201D0002078BD012078BD6B
:103A300010B504460848FDF70BFF64210648FDF762
:103A400069FE0548FDF7A6FDC0F580502060BDE881
:103A500010400148FDF75CBF100000202DE9FC413B
:103A600015460E46074600F08FF8002498B101AACB
:103A70006946384600F082F868B1009800F04CFAC8
:103A80000022064B00F0F0F800F0BCF8306001981E
:103A90002860BDE8FC8134602C60FAE700005940E2
:103AA000A0B0FEF72DFBFFF70FFDFFF719FCFFF7A6
:103AB000F1FBFFF75FFCFFF77DFCFFF7E3FC00F095
:103AC00057F80020184E194F1E901C904FF47A752D
:103AD0001D9080213046FEF748F81DA8FFF7A8FF8B
:103AE0001CAA1EA91248FFF7B9FF0024042138467A
:103AF000FEF736F8012800D101241E9800F078FA6C
:103B0000DDE91C238DE81C0002460B4609A103A831
:103B1000FCF78CFB82B22B4603A91448FFF75AF935
:103B20002846FDF70FFFD4E70010014000080140D0
:103B30004000002054656D70657261747572653A5D
:103B400020252E32662C2048756D69646974793A97
:103B50002025642C204C696768743A2025642C2049
:103B600048756D616E3A202564000000DC0000207D
:103B700000210148FFF76AB89400002013460A4666
:103B800042F25C41FFF7EEBE3EB505464CF6EF0053
:103B9000ADF808006424022302AAE021284600941C
:103BA000FEF7E2F988B9022301AAE1212846009430
:103BB000FEF7B2F848B9BDF8040040F63F0140BA3C
:103BC0000140A1F50062073A01D000203EBD4FF24E
:103BD000C07108403EBD000010B500290AD0087829
:103BE000002807D005487844FCF7D8FF002801D00A
:103BF000002010BD0248784410BD0000EA05000016
:103C0000E205000021F00042A2F16052B2F5801FEF
:103C100001F0004328BFD2F17F6C0BD95FEA001C92
:103C200043EAC20242EB507018BF704728BF20F031
:103C300001007047B2F5801FBCBF184670474FEABD
:103C4000410C1CF5001F02D2084600F042BA70B5C4
:103C500000F079F900000089FFF7F6BF4FF000404F
:103C6000A0F58000704700002DE9C04130B4DFF8B6
:103C7000A0C23CEA111418BF3CEA131400F0EC8017
:103C800081EA03051CEA111444EAD57418BF1CEA42
:103C9000131500F0C780A4EB05044FF0004545EA7A
:103CA000C12145EAC32341EA505143EA525304F18A
:103CB0007F74994204F500344FEAC0204FEAC222D3
:103CC00008BF904200F09C804FEA13650FF2401647
:103CD000765D4FEA134506FB05F7C7F1807706FBD3
:103CE00007F74FEAD737A7FB03687642C8F5803855
:103CF000A7FB06CE38BFA8F1010807FB08E64FF086
:103D0000000EA6FB028CE6FB03CEDCF1000CCEF12C
:103D1000004E38BFAEF1010EA6FB0C584FF0000765
:103D20004FF00005E6FB0E87A1FB08C6A0FB07CEFF
:103D300016EB0E0645F10005E1FB076515F1E04EB7
:103D40007EBFA4F580345FEA46066D4116F1800718
:103D500045F100054FEA17274FEA066647EA05676F
:103D6000A6F1DE46B6F1805F4FEA15251FD9384629
:103D700024F0010C05EBC471BCF1FE6F01EB0C11DA
:103D800002D8F0BCBDE8008124425CBF01F5801E72
:103D90009EEAC47F02D4F0BCBDE80081244238D43E
:103DA000F0BCA1F1C041BDE8004100F01AB94FEAF2
:103DB000D22242EA43524FEAD323A7FB02864FEABC
:103DC000D02040EA415007FB03661EEA0E0F4FEA7F
:103DD000D12105FB026658BFA6EB0056B6EB005694
:103DE0004FEA520E4EEAC37E18EB0E0E56EB530E00
:103DF000BDD518EB02085E417F1C55F10005B6E702
:103E00004FF480154FF000074FF000064FF0000808
:103E1000ADE7F0BC4FF0000001F1C04101F00041FE
:103E2000BDE8008111EA0C1F0CEA131500D00CE06C
:103E300013EA0C1F00F025804FF00000F0BC81EA6F
:103E4000030101F00041BDE80081F0BCBDE8004184
:103E500081EA030100F0C5B8F0BCBDE8004170B5CF
:103E600000F071F8097EFC3E00F007B881EA03011A
:103E70004FF0000001F00041704781EA030100F0BB
:103E8000B0B8F0BCBDE800414FF0000021497047D8
:103E9000FFFDFBF9F7F5F4F2F0EEEDEBE9E8E6E40F
:103EA000E3E1E0DEDDDBDAD8D7D5D4D3D1D0CFCD96
:103EB000CCCBCAC8C7C6C5C4C2C1C0BFBEBDBCBBCF
:103EC000BAB9B8B7B6B5B4B3B2B1B0AFAEADACABCA
:103ED000AAA9A8A8A7A6A5A4A3A3A2A1A09F9F9EA4
:103EE0009D9C9C9B9A999998979796959594939356
:103EF000929191908F8F8E8E8D8C8C8B8B8A8989ED
:103F0000888887878685858484838382828181806F
:103F10000000FF070000F87F10F0004248BF404259
:103F2000B0FA80F310FA03F10AD0C3F11D0303F5D0
:103F300080634FEA415002EB035202EBD1217047FC
:103F40004FF0000070470EF1020E2EF0030E5EF8E7
:103F5000046B364205D4012A43EB030515F5001F17
:103F600012D8012841EB010C1CF5001F0CD80ED112
:103F70004FEAD17C15F5001F0CEB4C0C0CF1020C38
:103F800008BF4CEBD37C04E04FF0080C01E04FEA93
:103F9000D37C0CEB4C0526FA05F606F00706B6F1C5
:103FA000040C06D20EEB860CBDE870404CF0010C00
:103FB0006047DFE80CF0090B02024FF000414FF0C0
:103FC0000000A1F5002170BD19461046012851EBF3
:103FD000010418BFD4F5001484BF002001F0004193
:103FE00070BD0808A0F500114FEA310170470000CC
:103FF00043004FEAD30C4FEA3C0C43401FBF40073D
:104000000CF1605113F0FE4F70471CF0006F03D1AC
:1040100000200CF0004170470CF0004343EA507060
:1040200010B540EACC0000F00EF800BF000000928E
:104030004FEA0001FFF7D5BF4FF000414FF00000FD
:10404000A1F5002170470EF1020E2EF0030E5EF86E
:10405000044B244204D44FEA4102B2F17F4F11D8FD
:104060004FEA4003B3F17F4F0CD80ED14FEAD07C1A
:10407000B2F17F4F0CEB4C0C0CF1020C08BF4CEB77
:10408000D17C04E04FF0080C01E04FEAD17C0CEB4E
:104090004C0324FA03F404F00704B4F1040C06D230
:1040A0000EEB840CBDE810404CF0010C6047DFE8DB
:1040B0000CF0070802024FF00040A0F5800010BD90
:1040C0000846420018BFD2F1807288BF00F000405D
:1040D00010BDFF2141EAD050C0057047FCF7DBBAA4
:1040E000010202030405060708090A0B0C0D0E0F56
:1040F0001010010202030405060708090A0B0C0D43
:104100000E0F101000000000000000000102030468
:104110000607080900000000010203040240000035
:10412000000000A00000000005400000000000C8E2
:10413000000000000C4000000000409C0000000057
:10414000194000000020BCBE000000003440000008
:10415000BFC91B8E00000004B5400000504BCFD0FB
:104160006607E2CF010000006C4100003E8251AAC8
:10417000DFEEA73401000000D9420000DCB5A0E268
:104180003A301F97FFFFFFFFB4450000FD25A0C890
:10419000E9A3C14FFFFFFFFFFF3F000000000080C9
:1041A00000000000FF3F0000000000800000000051
:1041B000EC41000800000020100000006C01000825
:1041C000FC4100081000002078070000880100086A
:1041D0001C00000043000000F8FFFFFF0C0000007F
:1041E0000E0000000F0000002E0000000100000083
:0C41F00010000000000000000024F4009B
:0400000508000131BD
:00000001FF
